:1070000052C0000085C0000069C0000067C00000D9
:1070100065C0000063C0000061C000005FC00000E8
:107020005DC000005BC0000059C0000057C00000F8
:1070300055C0000053C0000051C000004FC0000008
:107040004DC000004BC0000049C0000047C0000018
:1070500045C00000040309041C0377007700770093
:107060002E00660069007300630068006C002E004B
:10707000640065000E035500530042006100730078
:10708000700012011001FF000008C016DC050201AB
:10709000010200010902120001010080320904000E
:1070A00000000000000011241FBECFE5D8E0DEBFC5
:1070B000CDBF10E0A0E6B0E0EEEAF8E702C0059030
:1070C0000D92A838B107D9F710E0A8E8B0E001C0E8
:1070D0001D92AF3BB107E1F7B2D1E7C391CFA82F23
:1070E000B92F80E090E041E050EA609530E009C0BF
:1070F0002D9182279795879510F084279527305EEC
:10710000C8F36F5FA8F30895EADF8D939D93089508
:10711000CF93CFB7CF93DF93C395879BE9F7879B37
:107120000BC0879B09C0879B07C0879B05C0879BB7
:1071300003C0879B01C089C06F93C091A200DD2767
:10714000C755DF4F2F9365E5879B03C02F916F9144
:10715000E6CF0F931F934F9320E040E15F9300B37E
:10716000047807FB27F93F9350E03BE039C01478DF
:1071700040642F77012F5F5F1EC0406810B3147802
:107180002F7752501FC0406400B32F770478D1F19D
:107190005F5F00C023C0406210B32F77147891F175
:1071A0005F5F00C025C004781027515012F45D5F66
:1071B0000000115027952C3F10B3C8F61478012712
:1071C000015027952C3FC8F64227499300B3047815
:1071D00010274F73115027952C3FA8F646954695DA
:1071E00010B3147879F00127015027952C3F98F6B9
:1071F0006B5A60F3315000B3B0F600C010E41ABF10
:10720000002717C03B503195C31BD04010E41ABF74
:107210000881033CF9F00B34E9F02091A0001981BA
:10722000110F1213EDCF093651F10D3211F0013E5D
:1072300039F70093A7003F915F914F911F910F91F4
:107240002F916F91CAB7C6FD67CFDF91CF91CFBFA6
:10725000CF9118952091A700222369F31091A500E2
:10726000112339F534303AF13093A5002093A10071
:107270001091A2003BE0311B3093A2001CC0009192
:10728000A5000130B4F40AE53091820034FD14C049
:1072900000938200C5E9D0E013C0052710E000C0CC
:1072A000000002BB1AC0052710E0221F1DC010E01D
:1072B00021C04AE502C032ED432FC4E1D0E032E004
:1072C00011B31468979A02B311BB54E820E865E340
:1072D00020FF052702BB279517951C3FF0F6669502
:1072E000B8F7B1F720FF052702BB279517951C3F7C
:1072F000D0F62795179517FF052700001C3F02BB06
:10730000B0F629913A9519F70B771091A600110F55
:10731000C651D04002BB11F01093A00010E41ABF78
:10732000006811B31B77402F4B7754E05A95F1F763
:1073300002BB11BB42BB7FCF98B3282F207F9F7029
:10734000292B28BBC098C198C29A25E0922F9A9504
:10735000F1F7C298E0E2F3E03197F1F798B3829544
:10736000807F9F70982B98BBC29A2A95F1F7C2989C
:1073700080E49FE10197F1F7089598B3282F207FCB
:107380009F70292B28BBC09AC198C29A25E0922FE2
:107390009A95F1F7C298E0E2F3E03197F1F798B3EC
:1073A0008295807F9F70982B98BBC29A2A95F1F79F
:1073B000C29880E49FE10197F1F708958FEF87BBB2
:1073C00088EC90E0E0E9F1E03197F1F70197D1F72F
:1073D00083E3B2DF82E3B0DF88E2AEDF8CE0ACDFD4
:1073E00086E0AADF81E0A8DF80E49FE10197F1F762
:1073F0000895CF93DF93EC0101C0BFDF899188230B
:10740000E1F7DF91CF910895662329F4803154F498
:107410008F70806891CF613029F480311CF48F70B7
:10742000806C8ACF089515BAF8941BBE15BE81E012
:107430008BBF1BBEE0919300F0919400099588E109
:107440000FB6F89481BD11BC0FBEAD9A04B601FE13
:1074500016C214BE81E08BBF82E08BBF9D990FC224
:10746000ADDFC39A80E060E0CFDF80E690E0C1DF6F
:1074700080E061E0C9DF81E790E0BBDF85B7826033
:1074800085BF8BB780648BBF8F9A20E005C0A8951D
:1074900080EA9FE00197F1F72150C9F78F9878941F
:1074A000CC24DD249091A500935097FD5EC180917E
:1074B000A2000CE010E0081B110907551F4F809136
:1074C000A1008D3209F0DDC0983009F04CC183EC89
:1074D000809395008AE58093820010928C00D801F9
:1074E0003C91832F807611962C911197882309F473
:1074F00051C088E890E09093A4008093A3002330CB
:10750000F9F413969C91139714968C9114971296F4
:107510002C91203339F48370E82FF0E0EC57FF4FC3
:1075200080810AC0203A11F4ABD106C0203C19F486
:10753000F8016581ADD180E080938B0094E093C029
:10754000253011F491E08FC0822F84508630D8F41A
:10755000D80112968D919C91139790938F008093F0
:107560008E002930A9F016969C9116979093900062
:1075700015968C918270809391002093920037FD34
:107580006DC02FEF6CC0223019F481E080938D0024
:1075900090E069C0F801828110929E00222331F4AC
:1075A00010929F002EE930E092E053C0253019F48C
:1075B0008093A6004BC02630C9F5D80113968C9154
:1075C000813019F482E890E704C0823041F484E904
:1075D00090E79093A4008093A30092E123C08330AE
:1075E00001F5F8018281882341F484E590E79093C6
:1075F000A4008093A30094E015C0813041F488E595
:1076000090E79093A4008093A3009CE10BC082308C
:1076100041F484E790E79093A4008093A3009EE058
:1076200001C090E080E480938C001DC0283019F4E4
:1076300028EA30E009C0293019F48093A80006C078
:107640002A3021F42EE930E091E003C02EE930E049
:1076500090E03093A4002093A30005C0292F80E878
:1076600080938C000BC0D80117968C9117978823B4
:1076700021F416962C91291708F0292F20938300C6
:1076800072C080918C0087FF6EC080919000F92EAF
:10769000891708F4F82E8F1980939000EE24882320
:1076A00011F4EE24E39480919200873010F430E0DE
:1076B00053C0E8010CC080918E0090918F0001961C
:1076C00090938F0080938E0001976991E1D0FE0125
:1076D000E01BEF1580F343C0E0918E00F0918F0026
:1076E000CF018F779070892B49F4F89483E08093D1
:1076F0005700E895789407B600FCFDCF3E5FF894FC
:10770000D8018D919D918D0121E00C0120935700AE
:10771000E89511247894CF01029690938F0080937E
:107720008E008F779070892B41F0EE20A9F03F15E5
:1077300098F080919100882379F0F89485E0809307
:107740005700E895789407B600FCFDCFF89481E1E6
:1077500080935700E89578943F1508F4BDCFEE204C
:1077600011F0109283001092A5008091820084FF96
:1077700071C0809183008F3F09F46CC0182F89304D
:1077800008F018E0811B809383008091950098E8B1
:10779000892780939500112309F44AC080918C00B9
:1077A00087FF2AC080919000811708F4182F811B51
:1077B00080939000C6E9D0E017C080919200E091DC
:1077C0008E00F0918F00873018F0CF0159D001C0A2
:1077D00084918883219680918E0090918F000196EC
:1077E00090938F0080938E00812F90E08A569F4F58
:1077F000C817D90711F71AC0E091A300F091A400AF
:1078000086FF09C0912FA6E9B0E084918D9331964F
:107810009150D9F707C0912FA6E9B0E081918D93DF
:107820009150E1F7F093A400E093A300193060F4C5
:1078300086E990E0612F68DC612F6C5F6C3041F06D
:107840008FEF8093830004C08FEF809383006EE1FD
:107850006093820094E180B3847831F49150D9F739
:107860001092A6001092A00080918D00882309F448
:1078700019CECA9409F016CEDA9409F013CED3DDEE
:10788000E199FECF9FBB8EBBE09A99278DB30895F7
:10789000262FE199FECF9FBB8EBB2DBB0FB6F89470
:0E78A000E29AE19A0FBE01960895F894FFCF88
:1078AE0020202020204C46204C4320202020202029
:1078BE0000204D6F646520426F6F746C6F6164655C
:0878CE0072005AFF1E95020032
:040000030000700089
:00000001FF
