:0C0000000C947E020C9400000C94000094
:10000C000C9400000C9400000C9400000C94000064
:10001C000C9400000C9400000C9400000C94000054
:10002C000C942A030C9400000C94AB020C9400006A
:10003C000C94EC020C9400000C9400000C94000046
:10004C000C9400000C940000000000000000001F45
:10005C000000000000001F1F00000000001F1F1FF9
:10006C00000000001F1F1F1F0000001F1F1F1F1F6D
:10007C0000001F1F1F1F1F1F001F1F1F1F1F1F1FE1
:10008C000000000000000000000010000800040048
:10009C000200010000000002000400080010002013
:1000AC00202020204D6173756B6B616E2020202009
:1000BC000050617373776F72643A2E2E2E2E2E2E93
:1000CC002E002A00204D6161662050617373776F9A
:1000DC0072642020002020202053616C6168202154
:1000EC002120202020004E00430043503A2564205C
:1000FC0000610062006300202020416E6461205486
:10010C00656C61682020200020416B746966617306
:10011C006920526573657420002053696C61686BAB
:10012C00616E20556E74756B200020202020526566
:10013C0073746172742020202020005265736574E2
:10014C002053657474696E67203F20002B20596121
:10015C0020002D20546964616B20202020005369FD
:10016C006C61686B616E20526573746172740020EF
:10017C0020556E74756B20526573657420202000B9
:10018C002020204B6F6D756E696B61736920202088
:10019C0000202053657269616C20416B7469662084
:1001AC00200053657269616C204E6F6E2D416B742B
:1001BC0069660025302E32665620203E3E002B20EC
:1001CC004174757220504944202020202020002D9D
:1001DC002041747572204B656C616A75616E2000EC
:1001EC002B20546573204D6F746F722020202020BB
:1001FC00002D204B616C6962726173692020202094
:10020C0020002B2053746162696C697361746F7286
:10021C002020002D2044656C6179204177616C2091
:10022C00202020002B204174757220436F756E7452
:10023C0065722020003D3D3D3D3D54494D204C43D1
:10024C003D3D3D3D3D006B502020206B4920202042
:10025C006B442020202000630D0025640A00640DEF
:10026C0000650D00640065004D616B73204D696E77
:10027C002020204C616A7520002564002D25642007
:10028C00002020202043656B204D6F746F7220205E
:10029C00200020202020204C7572757320202020F7
:1002AC00202000202042656C6F6B204B616E616ECC
:1002BC002020200020202042656C6F6B204B69723F
:1002CC00692020200020202020204D756E6475723E
:1002DC002020202020002020202042657268656E9E
:1002EC0074692020202000546F74616C2057616B5E
:1002FC0074752020202020002564733A25646D73CA
:10030C002020202020004B616C6962726173692E81
:10031C002E2E202020200053746162696C69736159
:10032C00746F7220202020002564202020202020A3
:10033C0020202020202020200044656C6179204161
:10034C0077616C202020202020002564202000498B
:10035C003A25642000443A25642000543A25642050
:10036C0000413A4C7500413A4B6100413A4B6900EF
:10037C00413A5374004B693A256420004B613A258D
:10038C006400533A002D2D004350004E6F496E7699
:10039C0000496E767274004C4B693A25642020003B
:1003AC004C4B613A25642020004C3A2564202000F7
:1003BC0053696D70616E2E2E2E202020202020205F
:1003CC0000202020202054696D204C432020202028
:1003DC0020002020202020203230313720202020E7
:1003EC00202000002D4E414E000080C001002D4EFB
:1003FC00414E00494E460000010002008C000600F0
:10040C0004008E000B00B80694000C00C406A0007B
:10041C0002006002FD0002006202FF0002006402A2
:10042C000101030066026302030069026A02030011
:10043C006C026D0202006F02FD0002007102FF00EF
:10044C0002007302010102007502700202007702C1
:10045C00720203007902630203007C026A02030049
:10046C007F026D02030082026302030085026A02AE
:10047C00030088026D0203008B02630203008E02EC
:10048C006A02030091026D0202009402FD00020058
:10049C009602FF0002009802010102009A0270020B
:1004AC0002009C02720203009E026D020300A10274
:1004BC0063020300A4026A020300A7026D02030098
:1004CC00AA0263020300AD026A020300B0026D02CD
:1004DC000200B302FD000200B502FF000200B702E9
:1004EC00FD000200EE06F6030100F506F80300001D
:1004FC00F894EE27ECBBF1E0FBBFEBBFE5BF8DE062
:10050C00A2E0BB27ED938A95E9F780E098E0A0E69E
:10051C00ED930197E9F7E4E0F4E08591959100976C
:10052C0061F0A591B59105901590BF01F001059072
:10053C000D920197E1F7FB01F0CFEFE5EDBFE8E09D
:10054C00EEBFC0E6D2E00C945019EA93FA93EFB7E1
:10055C00EA931A930A931BB10CB1E12FEC7111F0D1
:10056C000C94CD02E52D5394F0E0E754FD4F00833D
:10057C00E8E0E51511F00C94C40255247394E8E0FE
:10058C00E71511F00C94CD027724689420F80991AA
:10059C001991E991EFBFF991E99118951A93772088
:1005AC0011F00C94DA02FBCFE42D4394F0E0E75405
:1005BC00FD4F1081E8E0E41511F00C94E6024424A0
:1005CC00F8947A947894E12F19910895EA93FA9318
:1005DC00EFB7EA93882011F40C9402038A94E92D66
:1005EC009394F0E0EF53FD4FE081ECB9E8E0E915AE
:1005FC0011F00C9402039924E991EFBFF991E99160
:10060C001895AA93E8E0E81511F00C940E03FACFB4
:10061C00F894882011F00C9416035D9B01C00FC058
:10062C00E62D6394F0E0EF53FD4FA881A083E8E042
:10063C00E61511F00C9423036624839402C0E88120
:10064C00ECB9789421960895AA93BA93EA93FA9305
:10065C00EFB7EA93E0EFE2BFA2EBB6E00E94152100
:10066C000E941B21A83EE3E0BE0710F40C94440347
:10067C000E942021A4EBB6E00E941521E991EFBF66
:10068C00F991E991B991A9911895AA93E881E06241
:10069C00E7B985E38A95F1F7369A349901C0FDCF15
:1006AC00349AE5B121960895AA931A930A93EA8194
:1006BC00EE0FEE0FEE0FE0640E2F10E0183010F07E
:1006CC000C9475030A930395EC81FD813196EC83B0
:1006DC00FD833197A4910E94B51E1F5FEFCF198146
:1006EC00088125960895BA93AA93A881B981EC91B3
:1006FC00E03011F40C948B03AC910E940703E88159
:10070C00F9813196E883F983F0CF22960895BA9354
:10071C00AA931A930E94D4021E2F1A3011F40C942F
:10072C009A030E94262110831A3011F40C949F0313
:10073C00F1CFA981BA81E0E0EC931881239608955A
:10074C001A93A0E0B0E00E941F28AE2EBB24A1E0BB
:10075C00B0E00E941F28CE2EDD24A2E0B0E00E9463
:10076C001F28F0E0E093C902F093CA02A3E0B0E0C6
:10077C000E941F28F0E00E942D21A4E0B0E00E940E
:10078C001F28F0E00E9432210E9437210E943C2158
:10079C00A0E3B0E00E941B280E944221A2E3B0E03B
:1007AC000E941F28E093D30210E01A3510F00C942D
:1007BC003F04E12FF0E0E45FFC4F0F01A12FB0E00C
:1007CC00AC5CBF4F0E944721EA59FC4F0F01A12F8F
:1007DC00B0E0A257BF4F0E944721E054FC4F0F01DD
:1007EC00A12FB0E0A851BF4F0E944721E65EFB4FFE
:1007FC000F01A12FB0E0AE5BBE4F0E944721EC5819
:10080C00FB4F0F01A12FB0E0A456BE4F0E94472111
:10081C00E253FB4F0F01A12FB0E0AA50BE4F0E9434
:10082C004721E85DFA4F0F01A12FB0E0A05BBD4F4F
:10083C000E944721EE57FA4F0F01A12FB0E0A655A9
:10084C00BD4F0E944721E452FA4F0F01A12FB0E097
:10085C00AC5FBC4F0E944721EA5CF94F0F01A12FFE
:10086C00B0E0A25ABC4F0E941F28D001EC931F5F2E
:10087C009CCF10E01E3010F00C9463040E944E21AB
:10088C000F01A12FB0E0AA5FBF4F0E944721EE518C
:10089C00FD4F0F01A12FB0E0AC5EBF4F0E9447216E
:1008AC00E051FD4F0F01A12FB0E0AE5DBF4F0E9494
:1008BC001F28D001EC931F5FDDCF19910895BA93D7
:1008CC00AA930E945321AA81BB81EA17FB0714F05B
:1008DC000C9476040E945321F9BDE8BD939826C070
:1008EC000E945821AA81BB81AE17BF0714F00C944B
:1008FC0085040E945F21F9BDE8BD939A17C0AB81B6
:10090C00AA2312F40C949004EA81FB81F9BDE8BD92
:10091C0093980CC0AB81AA2312F00C949C04EA812E
:10092C00FB81E150FF4FF9BDE8BD939A0E94532122
:10093C00A881B981EA17FB0714F00C94AB040E9450
:10094C005321FBBDEABD969826C00E945821A88170
:10095C00B981AE17BF0714F00C94BA040E945F2142
:10096C00FBBDEABD969A17C0A981AA2312F40C9478
:10097C00C504E881F981FBBDEABD96980CC0A9813C
:10098C00AA2312F00C94D104E881F981E150FF4FB5
:10099C00FBBDEABD969A249608951A930A930E9479
:1009AC006821173010F00C942A050E947021FF93D7
:1009BC00EF93E7E0E11BAE2F0E944B03AF91BF9189
:1009CC000E947521073010F00C9428050E947021AC
:1009DC000E947E210E948C210E94982114F40C9478
:1009EC0003050E9470210E947E210E948C210E948E
:1009FC00A42114F00C94030508C00E9470210E94DD
:100A0C00AF2110F40C940B050DC0003011F40C94B4
:100A1C0012050E94B72101C0EFEFAE2F0E94E11E1C
:100A2C0011C00EC00E947021A0810E944E21E08155
:100A3C00AE1710F00C942605A0E20E94E11E02C035
:100A4C000F5FC0CF1F5FADCF0E94C0211E3010F0D2
:100A5C000C947E050E947021FF93EF93A12FA6505A
:100A6C000E944B03AF91BF910E947521073010F08B
:100A7C000C947C050E9470210E947E210E948C2186
:100A8C000E94982114F40C9457050E9470210E9426
:100A9C007E210E948C210E94A42114F00C945705F5
:100AAC0008C00E9470210E94AF2110F40C945F05C5
:100ABC000DC0003011F40C9466050E94B72101C0E2
:100ACC00EFEFAE2F0E94E11E11C00EC00E947021EC
:100ADC00A0810E944E21E081AE1710F00C947A0593
:100AEC00A0E20E94E11E02C00F5FC0CF1F5FAECF1D
:100AFC00099119910895E0E0E093EC06E093ED067E
:100B0C000E94C821ACEAB0E00E94CD21ADEBB0E070
:100B1C000E94201FE9E00E94D421989B0BC0999B56
:100B2C0009C09A9B07C09B9B05C09C9B03C09D9BC7
:100B3C0001C090C0AEECB0E00E94201F989B0BC08F
:100B4C00999B09C09A9B07C09B9B05C09C9B03C0AB
:100B5C009D9B01C07AC0989907C0A091ED06A0306A
:100B6C0011F00C94BA0501C007C00E94D8219899C5
:100B7C0003C00E94DE21FBCF9C9907C0A091ED061B
:100B8C00A13011F00C94CB0501C007C00E94D821F4
:100B9C009C9903C00E94DE21FBCF9C9907C0A091B9
:100BAC00ED06A23011F00C94DC0501C007C00E94C8
:100BBC00D8219C9903C00E94DE21FBCF999907C0D4
:100BCC00A091ED06A33011F00C94ED0501C007C007
:100BDC000E94D821999903C00E94DE21FBCF9899DD
:100BEC0007C0A091ED06A43011F00C94FE0501C0D5
:100BFC0007C00E94D821989903C00E94DE21FBCF28
:100C0C009D9907C0A091ED06A53011F00C940F062C
:100C1C0001C007C00E94D8219D9903C00E94DE210B
:100C2C00FBCF9C9907C0A091ED06A63011F00C9457
:100C3C00200601C007C00E94D8219C9903C00E94C5
:100C4C00DE21FBCF0E94DE2179CFE091EC06EF5F35
:100C5C00E093EC06A091ED06A73011F00C9437064A
:100C6C0018C0A091EC06A73011F00C944C060E9411
:100C7C00C821A0EDB0E00E94CD21A1EEB0E00E9411
:100C8C00201FA8EEB3E00E94782503C00E94E22149
:100C9C0044CF08950E94E621E0E0EA83EB830E94B2
:100CAC0048280E94EB21E091E206F0E0309711F029
:100CBC000C946506A2EFB0E00E94201F0AC0E13040
:100CCC00A0E0FA0711F00C946F06A4EFB0E00E94BC
:100CDC00201F2091E20610E000E00A3510F00C9481
:100CEC007F060E94EE2111F40C947D061F5F0F5FAE
:100CFC00F4CF4FEF5FEFE091E006E03011F40C948D
:100D0C008A06E150E093E00600E0E091E006E0178F
:100D1C0010F40C949A060E94EE2111F40C9498068F
:100D2C004F5F5F4F0F5FF1CFE0E00E94D4210E9434
:100D3C00F521E091E306E03011F40C94D60677200F
:100D4C0011F40C94D6060E940B220E940F22A0E6EE
:100D5C00B2E00E947E20E03011F00C94BA06AE98FE
:100D6C00AF980E94A6030AC20E940F22A2E6B2E02C
:100D7C000E947E20E03011F00C94C906AE98AF981A
:100D8C000E94A603A6C30E940F22A4E6B2E00E9412
:100D9C007E20E03011F00C94D606AE98AF98ACC51E
:100DAC009899A0C0AE98AF9898999AC0999963C039
:100DBC00A3E3B0E00E941F28E03011F40C94030769
:100DCC000E94C821A3E0B1E00E94CD21A4E1B1E0D2
:100DDC000E9414220E94C821A5E2B1E00E94CD21FC
:100DEC00A6E3B1E00E941422989B03C0999B01C01A
:100DFC0003C00E94DE21F8CF54CF0E94C821A7E483
:100E0C00B1E00E94CD21A8E5B1E00E94201FE5E0F1
:100E1C000E94D421AEE5B1E00E94201F989B03C034
:100E2C00999B01C003C00E94DE21F8CF9C9919C088
:100E3C009C9903C00E94DE21FBCF0E948105A091EA
:100E4C00ED06A73010F00C942C07B2CF0E94C821ED
:100E5C00AAE6B1E00E94CD21ABE7B1E00E94201FD1
:100E6C0020CF9D9906C09D9903C00E94DE21FBCF27
:100E7C0018CFDCCF32C09A9930C0E091E306E03055
:100E8C0011F00C945E07772011F40C9450070E941B
:100E9C000B22F9CFE1E0E093E3060E94C821ACE815
:100EAC00B1E00E94CD21ADE9B1E00E941422F9CE4F
:100EBC00772011F40C9465070E940B22F9CFE0E027
:100ECC00E093E3060E94C821ACE8B1E00E94CD217A
:100EDC00AEEAB1E00E941422E4CE0E94DE2164CF7F
:100EEC0020E096C09D9909C0AE98AF989D9903C01B
:100EFC000E94DE21FBCF0C94FB139A9928C0AE986C
:100F0C00AF980E94C8219A9903C00E94DE21FBCFA2
:100F1C00E091E206E03011F40C949607E0E001C099
:100F2C00E1E0E093E206F0E0309711F00C94A307B7
:100F3C00A2EFB0E00E94201F0AC0E130A0E0FA0747
:100F4C0011F00C94AD07A4EFB0E00E94201F9B9908
:100F5C0015C0AE98AF980E94E2214F5F5F4FE12F12
:100F6C00F0E03197E417F50714F00C94BF0740E05C
:100F7C0050E0E0E00E94D4210E94F5219C9916C01B
:100F8C00AE98AF980E94E22141505040EFEFFFEF36
:100F9C00E417F50711F00C94D707E12FF0E0319727
:100FAC00AF01E0E00E94D4210E94F521A0E00E9454
:100FBC004B03FF27662777270E94EE25AAE9B9E99C
:100FCC0089EA90E40E947826A0E0B0E080EA90E400
:100FDC000E947826DF01CB01E0E0F0E06FE773E4DC
:100FEC000E94C626EE83FF8368877987E6E00E941D
:100FFC00D4210E941A22EFEBF1E0FA93EA930E94BB
:10100C001F220E9424220E942B220E94D30491CEE4
:10101C000E94A6039A9906C09A9903C00E94DE21E9
:10102C00FBCF2F5F9B9906C09B9903C00E94DE21CA
:10103C00FBCF2150989906C0989903C00E94DE21DD
:10104C00FBCF2FCE999906C0999903C00E94DE213F
:10105C00FBCF27CE9C9924C09C9903C00E94DE2113
:10106C00FBCFE22FF0E0309711F00C943F0886C0D4
:10107C0006C0E130A0E0FA0711F00C9447083CC41C
:10108C0006C0E230A0E0FA0711F00C944F08E6C558
:10109C0006C0E330A0E0FA0711F00C94560878C6AD
:1010AC009D991CC09D9903C00E94DE21FBCFE22FAD
:1010BC00F0E0309711F00C9465080BC206C0E130DB
:1010CC00A0E0FA0711F00C946D08E1C406C0E23000
:1010DC00A0E0FA0711F00C94740819C6E22FF0E0A6
:1010EC00309711F00C9485080E94C821AAECB1E04D
:1010FC000E94CD21ABEDB1E00E94201F3AC0E1303F
:10110C00A0E0FA0711F00C9496080E94C821ACEEEE
:10111C00B1E00E94CD21ADEFB1E00E94201F29C0AB
:10112C00E230A0E0FA0711F00C94A7080E94C82145
:10113C00AEE0B2E00E94CD21AFE1B2E00E94201FF0
:10114C0018C0E330A0E0FA0711F00C94B8080E9424
:10115C00C821A0E3B2E00E94CD21A1E4B2E00E943C
:10116C00201F07C0243011F00C94BE0820E001C0F1
:10117C0023E0A6E9B0E00E9478254CCF20E00E9445
:10118C00EB210E941A22E2E5F2E00E942F22E0916C
:10119C00E306E03011F40C94F108A6E6B2E00E94EC
:1011AC0036220E9439220E943E220E944222A9E647
:1011BC00B2E00E9436220E9439220E9446220E94EE
:1011CC004222ACE6B2E00E9436220E9439220E94F2
:1011DC004A220E944222E091E306E03011F40C9482
:1011EC005709772011F40C9457090E940B220E9486
:1011FC000F22AFE6B2E00E947E20E03011F00C949A
:10120C000B090E9451220C94CF130E940F22A1E7CC
:10121C00B2E00E947E20E03011F00C94160941CD12
:10122C000E940F22A3E7B2E00E947E20E03011F072
:10123C000C942B09772011F40C942A0920E00E94BD
:10124C000B220E9462225F012CC00E940F22A5E794
:10125C00B2E00E947E20E03011F00C94400977201F
:10126C0011F40C943F0921E00E940B220E9462228F
:10127C006F0117C00E940F22A7E7B2E00E947E20E8
:10128C00E03011F00C945709772011F40C945709A5
:10129C0022E00E940B220E946222E093C902F0938A
:1012AC00CA029A9908C02F5F233011F00C945F0981
:1012BC0020E00E9466229B9908C021502F3F11F01C
:1012CC000C94690922E00E9466229C9952C0E22F7C
:1012DC00F0E0309711F00C947709F50131965F012D
:1012EC0014C0E130A0E0FA0711F00C948109F6016A
:1012FC0031966F010AC0E230A0E0FA0711F00C94AD
:10130C008B09A9ECB2E00E941521E091E306E030D4
:10131C0011F40C94BD09203011F00C94A009A9E72C
:10132C00B2E00E9436220E9439220E943E220E9484
:10133C0042221DC0213011F00C94AF09ACE7B2E091
:10134C000E9436220E9439220E9446220E9442228A
:10135C000EC0223011F00C94BD09AFE7B2E00E9430
:10136C0036220E9439220E944A220E9442220E9466
:10137C0066229D9952C0E22FF0E0309711F00C9448
:10138C00CB09F50131975F0114C0E130A0E0FA07F9
:10139C0011F00C94D509F60131976F010AC0E230B7
:1013AC00A0E0FA0711F00C94DF09A9ECB2E00E945E
:1013BC006A22E091E306E03011F40C94110A20301B
:1013CC0011F00C94F409A2E8B2E00E9436220E94BB
:1013DC0039220E943E220E9442221DC0213011F06F
:1013EC000C94030AA5E8B2E00E9436220E9439222E
:1013FC000E9446220E9442220EC0223011F00C9410
:10140C00110AA8E8B2E00E9436220E9439220E94FA
:10141C004A220E9442220E946622E1E00E94D421CC
:10142C000E941A220E9470220E943E220E942B22AD
:10143C00E6E00E94D4210E941A220E9470220E948F
:10144C0046220E942B22EBE00E94D4210E941A22F9
:10145C000E9470220E944A220E942B22E0E00E94ED
:10146C00D421203011F00C943D0AEEE701C0E0E2EB
:10147C000E947522213011F00C94460AEEE701C04F
:10148C00E0E2AE2F0E94E11EEAE00E94D42122305D
:10149C0011F00C94530AEEE701C0E0E2AE2F0E946B
:1014AC00E11E98990AC0989903C00E947A22FBCF3A
:1014BC000E94512220E00C94CF13999907C099995E
:1014CC0003C00E947A22FBCF20E0A2CD0E947A2298
:1014DC0082CE20E00E94EB210E941A22E4E7F2E087
:1014EC000E942F22ABE8B2E00E9436220E943922E1
:1014FC000E947E220E944222AEE8B2E00E94362276
:10150C000E9439220E9483220E944222A1E9B2E069
:10151C000E9436220E9439220E948A220E94422274
:10152C00E091E306E03011F40C94FE0A772011F4FC
:10153C000C94FE0A0E940B220E940F22A4E9B2E036
:10154C000E947E20E03011F00C94B00A0E9491228F
:10155C000C94CF130E940F22A6E9B2E00E947E20C9
:10156C00E03011F00C94BB0A9CCB0E940F22A8E92E
:10157C00B2E00E947E20E03011F00C94D10A20E001
:10158C00772011F40C94D00A0E940B220E94622244
:10159C000E942D212DC00E940F22AAE9B2E00E94C8
:1015AC007E20E03011F00C94E70A21E0772011F452
:1015BC000C94E60A0E940B220E9462220E943221A5
:1015CC0017C00E940F22ACE9B2E00E947E20E030EE
:1015DC0011F00C94FE0A22E0772011F40C94FE0A10
:1015EC000E940B220E946222E093CF02F093D00261
:1015FC000E9453210E94A422EA17FB0714F00C94BA
:10160C001F0B0E945321E093CF02F093D002E09184
:10161C00E306E03011F40C941F0BAEE9B2E00E942B
:10162C003622E5E8F2E0FA93EA930E948A220E94BD
:10163C004222A091CB02B091CC02A030E1E0BE07D7
:10164C0014F40C942F0BE0E0E093CB02E093CC026B
:10165C0025C0A091CC02AA2312F00C943A0BEFEF08
:10166C00F0E00E942D211AC0A091CD02B091CE02C3
:10167C00A030E1E0BE0714F40C944A0BE0E0E093D8
:10168C00CD02E093CE020AC0A091CE02AA2312F0A2
:10169C000C94540BEFEFF0E00E9432219A990AC09F
:1016AC002F5F233011F00C945C0B20E0AAE5B0E026
:1016BC000E9478259B990AC021502F3F11F00C9461
:1016CC00680B22E0AAE5B0E00E9478259C9954C0F2
:1016DC00E22FF0E0309711F00C94790BABECB2E008
:1016EC000E94152115C0E130A0E0FA0711F00C940E
:1016FC00840BADECB2E00E9415210AC0E230A0E0F0
:10170C00FA0711F00C948E0BAFECB2E00E9415218D
:10171C00E091E306E03011F40C94C00B203011F092
:10172C000C94A30BA1EAB2E00E9436220E9439224B
:10173C000E947E220E9442221DC0213011F00C9486
:10174C00B20BA4EAB2E00E9436220E9439220E9417
:10175C0083220E9442220EC0223011F00C94C00B46
:10176C00A7EAB2E00E9436220E9439220E948A2205
:10177C000E9442220E9466229D9954C0E22FF0E002
:10178C00309711F00C94CF0BABECB2E00E946A22B4
:10179C0015C0E130A0E0FA0711F00C94DA0BADECB7
:1017AC00B2E00E946A220AC0E230A0E0FA0711F00F
:1017BC000C94E40BAFECB2E00E946A22E091E306D9
:1017CC00E03011F40C94160C203011F00C94F90B41
:1017DC00AAEAB2E00E9436220E9439220E947E229E
:1017EC000E9442221DC0213011F00C94080CADEA6D
:1017FC00B2E00E9436220E9439220E9483220E946B
:10180C0042220EC0223011F00C94160CA0EBB2E068
:10181C000E9436220E9439220E948A220E94422271
:10182C000E946622E1E00E94D4210E941A220E94AA
:10183C0070220E947E220E942B22E6E00E94D4217C
:10184C00E091CD02F091CE02309711F00C94350C52
:10185C000E941A220E9470220E94832208C00E94B9
:10186C001A22E8E8F2E0FA93EA930E9483220E949B
:10187C002B22ECE00E94D4210E941A220E9470229A
:10188C000E948A220E942B22E0E00E94D421203068
:10189C0011F00C94530CEEE701C0E0E20E947522AB
:1018AC00213011F00C945C0CEEE701C0E0E20E94D8
:1018BC00A9220E94D421223011F00C94670CEEE77F
:1018CC0001C0E0E2AE2F0E94E11E989909C09899E0
:1018DC0003C00E947A22FBCF0E94912220E059C7BC
:1018EC00999907C0999903C00E947A22FBCF20E0F6
:1018FC008FCB0E947A2214CE0E94AE220E94B32279
:10190C000E94AE220E94B8220E94BD220E94EB21AE
:10191C00ADE8B2E00E94201FE091E306E03011F444
:10192C000C94050D772011F40C94020D0E940B22DF
:10193C000E940F22A3EBB2E00E947E20E03011F057
:10194C000C94B40C0E94CF22E0E0E093DE06E0930E
:10195C00DF06E093DC06E093DD06A3C90E940F22AC
:10196C00A5EBB2E00E947E20E03011F00C94EC0C60
:10197C00772011F40C94C80C0E940B220E94622256
:10198C000E94B822772011F40C94D50C0E940B22E3
:10199C000E946222E03011F4939801C0939A772050
:1019AC0011F40C94DF0C0E940B220E9462220E9404
:1019BC00B322772011F40C94EC0C0E940B220E94A1
:1019CC006222E03011F4969801C0969A939B08C05D
:1019DC00E091DC06F091DD06EF5FF0400E94B8224A
:1019EC00969B08C0E091DE06F091DF06EF5FF040B9
:1019FC000E94B3220E94BD220E947A2293CFE1E082
:101A0C00E9BFE0E00E94D421AEE9B2E00E94D72207
:101A1C000E94E422AFEAB2E00E94D7220E94EE229A
:101A2C000E94F322A0ECB2E00E94201F0E94EE2242
:101A3C000E94FC220E94E422A1EDB2E00E94201F31
:101A4C000E94EE220E94FC220E94EE220E94F322AF
:101A5C00A2EEB2E00E94201F0E94CF22A8EEB3E0BB
:101A6C000E947825E0E0E9BF0E94C821A3EFB2E014
:101A7C000E94CD210E941A220E940523ACEDB5E0F4
:101A8C000E9478250E9420210E941E23C1CA30E0AA
:101A9C0020E00E94D21EE0E00E94D421A2E1B3E03B
:101AAC000E94201FE1E0E9BFAE9AAF9880E293E07C
:101ABC000197F1F700E0073010F00C94730D0E94C1
:101ACC002423FF93EF93E7E0E01BAE2F0E944B0320
:101ADC00AF91BF91EC930F5FEECFAE98AF9A80E2CF
:101AEC0093E00197F1F707E00E3010F00C948B0D9A
:101AFC000E942423FF93EF93A02FA6500E944B0328
:101B0C00AF91BF91EC930F5FEFCF303011F00C948D
:101B1C009F0D00E00E3010F00C949E0D0E942923B6
:101B2C00E081EC930E942E23E081EC930F5FF2CFC7
:101B3C003F5F00E00E3010F00C94C10D0E94242386
:101B4C00A0810E943323E081EA1710F00C94B20DAF
:101B5C000E942923E081EC930E942423A0810E94FF
:101B6C003823AE1710F00C94BF0D0E942E23E08189
:101B7C00EC930F5FDFCF0E941B21A135E0E0BE0785
:101B8C0010F40C94E80D0E9420212A93A0E00E94EE
:101B9C00C01E313011F00C94D50DEFEF01C0E0E216
:101BAC00AE2F0E94E11E2F3010F00C94DF0D2F5F32
:101BBC0009C020E0313011F00C94E60DE2E001C0D8
:101BCC00E1E03E2F989938C0E0E0E9BF0E94202167
:101BDC000E941E23AE98AF98989903C00E94DE21F4
:101BEC00FBCF00E00E3010F00C94200EE02FF0E054
:101BFC00EA5FFF4FBF010E943323A081B0E00E9437
:101C0C003823F0E0AE0FBF1FE2E0F0E00E94972710
:101C1C00DB010E943E23AC5EBF4F0E943323E08168
:101C2C000E943E23AE5DBF4F0E9438230E94332892
:101C3C000F5FD8CF21E0ADC599990FC0E0E0E9BFA7
:101C4C000E9420210E941E23AE98AF98999903C040
:101C5C000E94DE21FBCF21E0DBC926CF0E94C821E8
:101C6C00A3E2B3E00E94CD21AEE70E94E11E9C9955
:101C7C0012C0A1EDB2E00E941521A091D102B09149
:101C8C00D202A030E1E0BE0714F40C94510EE1E056
:101C9C00FFEF0E9442219D9912C0A1EDB2E00E947B
:101CAC006A22A091D102B091D202A130EFEFBE070F
:101CBC0014F00C94650EEFEFF0E00E944221E1E08D
:101CCC000E94D4210E941A22E4E3F3E0FA93EA93EF
:101CDC000E9443230E9448230E942B2298990CC0F7
:101CEC00989903C00E94DE21FBCF0E944323A0E3FE
:101CFC00B0E00E942B284DC5999906C0999903C054
:101D0C000E94DE21FBCF84C90E94E221B0CF0E9449
:101D1C00EB21A5E4B3E00E94CD21AEE70E94E11EC9
:101D2C009C9905C0E091D302EF5FE093D3029D999B
:101D3C0005C0E091D302E150E093D302E1E00E94B0
:101D4C00D4210E941A22E6E5F3E0FA93EA93E0919B
:101D5C00D3020E944B230E942B2298990DC0989974
:101D6C0003C00E94DE21FBCFE091D302A2E3B0E0DE
:101D7C000E94332822E00DC5999907C0999903C098
:101D8C000E94DE21FBCF22E043C90E94E221C8CF92
:101D9C00989B05C09A9B03C09B9B01C003C00E94EB
:101DAC00DE21F6CF00E020E00E94D21E9A9906C0F8
:101DBC002F5F263011F00C94E40E20E09B9906C0A6
:101DCC0021502F3F11F00C94EC0E25E09C998AC009
:101DDC00E22FF0E0309711F00C94FB0E0F5F0A35F8
:101DEC0011F00C94FA0E00E07DC0E130A0E0FA078F
:101DFC0011F00C94130FA02FB0E0A45FBC4F0E9405
:101E0C004F23E45FFC4FA081A43611F00C94120F09
:101E1C000E945523A0E0A08365C0E230A0E0FA0741
:101E2C0011F00C942B0FA02FB0E0AA59BC4F0E94BC
:101E3C004F23EA59FC4FA081A43611F00C942A0FC1
:101E4C000E945A23A0E0A0834DC0E330A0E0FA0723
:101E5C0011F00C94450FA02FB0E0A054BC4F0E9481
:101E6C004F23E054FC4FA081A43011F00C94420F8E
:101E7C000E945F23A0E0A0830E94DE2133C0E430E7
:101E8C00A0E0FA0711F00C945F0FA02FB0E0AC5853
:101E9C00BB4F0E944F23EC58FB4FA081A63011F092
:101EAC000C945C0F0E946423A0E0A0830E94DE21AE
:101EBC0019C0E530A0E0FA0711F00C94780FA02FB0
:101ECC00B0E0A65EBB4F0E944F23E65EFB4FA081A5
:101EDC00A63011F00C94760F0E946923A0E0A08329
:101EEC000E94DE219D9984C0E22FF0E0309711F022
:101EFC000C94870F01500F3F11F00C94860F09E5DD
:101F0C0077C0E130A0E0FA0711F00C94A00FA02FDD
:101F1C00B0E0A45FBC4FEC91E150EC930E945523D0
:101F2C00A081AF3F11F00C949F0F0E945523A3E6A4
:101F3C00A0835EC0E230A0E0FA0711F00C94B90F58
:101F4C00A02FB0E0AA59BC4FEC91E150EC930E9449
:101F5C005A23A081AF3F11F00C94B80F0E945A2362
:101F6C00A3E6A08345C0E330A0E0FA0711F00C947F
:101F7C00C90FA02FB0E0A054BC4FEC91E150EC93F2
:101F8C000E94DE2135C0E430A0E0FA0711F00C9479
:101F9C00E40FA02FB0E0AC58BB4FEC91E150EC93A8
:101FAC000E946423A081AF3F11F00C94E10F0E94BA
:101FBC006423A5E0A0830E94DE211AC0E530A0E0D6
:101FCC00FA0711F00C94FE0FA02FB0E0A65EBB4FE9
:101FDC00EC91E150EC930E946923A081AF3F11F08A
:101FEC000C94FC0F0E946923A5E0A0830E94DE21C3
:101FFC000E946E230E9474230E942B220E947C2339
:10200C000E941A22E1E6F3E0FA93EA930E94552328
:10201C00E0810E944B230E942B22ECE00E94812342
:10202C000E941A22E7E6F3E0FA93EA930E945A23FD
:10203C00E0810E944B230E942B22E1E00E94D421DC
:10204C000E945F23E081F0E0309711F00C94331084
:10205C00ADE6B3E00E94201F31C0E130A0E0FA07EA
:10206C0011F00C943E10A2E7B3E00E94201F26C092
:10207C00E230A0E0FA0711F00C944910A7E7B3E0A6
:10208C000E94201F1BC0E330A0E0FA0711F00C9453
:10209C005410ACE7B3E00E94201F10C00E945F23D5
:1020AC00A081A43011F00C9460100E945F23A0E07A
:1020BC00A08304C00E945F23A3E0A083E6E00E94FB
:1020CC00D4210E941A22E1E8F3E0FA93EA930E94E9
:1020DC006423E0810E944B230E942B22ECE00E949F
:1020EC00D4210E941A22E8E8F3E0FA93EA930E94C2
:1020FC006923E0810E944B230E942B220E94C8215D
:10210C00203011F00C948C10EEE701C0E0E20E943C
:10211C008523213011F00C949510EEE701C0E0E21C
:10212C000E94A9220E948123223011F00C94A0104D
:10213C00EEE701C0E0E20E948A23233011F00C94F8
:10214C00A910EEE701C0E0E20E947522243011F0E4
:10215C000C94B210EEE701C0E0E20E94A9220E94AA
:10216C00D421253011F00C94BD10EEE701C0E0E253
:10217C00AE2F0E94E11E989937C0989909C09A9980
:10218C0001C03FC09B9901C015C20E94DE21F5CF52
:10219C0000E00A3510F00C94F8100E948F23E081B7
:1021AC000E943E230E949423E0810E943E230E94C1
:1021BC009723E0810E943E230E949A23E0810E9493
:1021CC003E230E949D23E0810E943E230E94A02377
:1021DC000E94A8230E94B0230E94B8230E94C0230F
:1021EC000F5FD7CF23E0D5C2999908C0999903C046
:1021FC000E94DE21FBCF23E00C940E080E94CA2320
:10220C00D5CD989B05C09A9B03C09B9B01C003C076
:10221C000E94DE21F6CF20E00E94D21E9A990BC0BC
:10222C002F5F9A9903C00E94DE21FBCF253011F05D
:10223C000C94211120E09B990BC021509B9903C059
:10224C000E94DE21FBCF2F3F11F00C942E1124E0C5
:10225C009C9958C0E22FF0E0309711F00C9441118A
:10226C000F5F0A3511F00C943C1100E0AEE1B0E0C8
:10227C000E94782547C0E130A0E0FA0711F00C94D9
:10228C004E11E02FF0E0E253FB4FA1E0A0833AC0E7
:10229C00E230A0E0FA0711F00C9459110E94CE2301
:1022AC00A1E0A0832FC0E330A0E0FA0711F00C945A
:1022BC007111A02FB0E0A452BA4F0E944F23E452E8
:1022CC00FA4FE081E03011F00C9470110E94D3238E
:1022DC00AFEFA08317C0E430A0E0FA0711F00C9424
:1022EC008811A02FB0E0AA5CB94F0E944F23EA5C82
:1022FC00F94FE081E03011F00C9488110E94D82342
:10230C00AFEFA0839D9960C0E22FF0E0309711F001
:10231C000C949B1101500F3F11F00C94961109E590
:10232C00AEE1B0E00E9478254FC0E130A0E0FA07A2
:10233C0011F00C94AE11A02FB0E0A253BB4F0030A3
:10234C0011F00C94AB11E1E001C0E1E0EC933CC066
:10235C00E230A0E0FA0711F00C94B9110E94CE23E0
:10236C00A0E0A08331C0E330A0E0FA0711F00C9498
:10237C00D211A02FB0E0A452BA4FEC91E150EC93E3
:10238C000E94D323E081E03011F00C94D1110E9413
:10239C00D323A1E0A08318C0E430A0E0FA0711F029
:1023AC000C94EA11A02FB0E0AA5CB94FEC91E1506B
:1023BC00EC930E94D823E081E03011F00C94EA11E8
:1023CC000E94D823A1E0A0830E94D3230E94DD2386
:1023DC0014F00C94F5110E94D323A1E0A0830E9469
:1023EC00D8230E94DD2314F00C9400120E94D823F1
:1023FC00A1E0A0830E946E230E9474230E942B22D2
:10240C000E947C23AEE8B3E00E94201FE8E00E940B
:10241C008123E02FF0E0E253FB4FE081F0E03097B6
:10242C0011F00C941E12A1E9B3E00E94201F0AC007
:10243C00E130A0E0FA0711F00C942812A4E9B3E003
:10244C000E94201FEBE00E9481230E94CE23E0819A
:10245C00F0E0309711F00C943812A7E9B3E00E9429
:10246C00201F0AC0E130A0E0FA0711F00C944212D0
:10247C00ADE9B3E00E94201FE1E00E94D4210E944C
:10248C001A22E3EAF3E0FA93EA930E94D323E08161
:10249C000E944B230E942B22E9E00E94D4210E942F
:1024AC001A22ECEAF3E0FA93EA930E94D823E08133
:1024BC000E944B230E942B220E94C821203011F035
:1024CC000C946A12EEE701C0E0E20E9485232130F1
:1024DC0011F00C947312EEE701C0E0E2AE2F0E94F3
:1024EC00E11EEAE00E948123223011F00C9480124C
:1024FC00EEE701C0E0E20E948A23233011F00C9435
:10250C008912EEE701C0E0E2AE2F0E94E11EE8E086
:10251C000E94D421243011F00C949612EEE701C0E5
:10252C00E0E2AE2F0E94E11E989937C0989909C03D
:10253C009A9901C03FC09B9901C02ACC0E94DE2110
:10254C00F5CF00E00A3510F00C94D1120E948F23C5
:10255C00E0810E943E230E949423E0810E943E234E
:10256C000E949723E0810E943E230E949A23E081DF
:10257C000E943E230E949D23E0810E943E230E94E4
:10258C00A0230E94A8230E94B0230E94B8230E947B
:10259C00C0230F5FD7CF23E0FCC0999908C099994D
:1025AC0003C00E94DE21FBCF23E00C940E080E9496
:1025BC00CA2334CE989B05C09A9B03C09B9B01C039
:1025CC0003C00E94DE21F6CF20E00E94D21E9A9911
:1025DC000BC02F5F9A9903C00E94DE21FBCF2230E3
:1025EC0011F00C94FA1220E09B990BC021509B998E
:1025FC0003C00E94DE21FBCF2F3F11F00C94071378
:10260C0021E09C9924C0E22FF0E0309711F00C945B
:10261C0016130F5F0A3511F00C94151300E017C058
:10262C00E130A0E0FA0711F00C942D13A02FB0E0CC
:10263C00AE57BA4F0E944F23EE57FA4FE081E0306D
:10264C0011F00C942D130E94E423AFEFA0839D99FD
:10265C0025C0E22FF0E0309711F00C943C130150A0
:10266C000F3F11F00C943B1309E518C0E130A0E0CA
:10267C00FA0711F00C945413A02FB0E0AE57BA4FD8
:10268C00EC91E150EC930E94E423E081E03011F0F6
:10269C000C9454130E94E423A1E0A0830E94E42331
:1026AC000E94DD2314F00C945F130E94E423A1E03C
:1026BC00A0830E946E230E9474230E942B220E94EE
:1026CC007C230E941A22E5EBF3E0FA93EA930E9432
:1026DC00E423E0810E944B230E942B220E94C821FC
:1026EC00203011F00C947C13EEE701C0E0E20E9464
:1026FC008523213011F00C948513EEE701C0E0E244
:10270C00AE2F0E94E11E989937C0989909C09A99EA
:10271C0001C03ECB9B9901C074CD0E94DE21F5CF48
:10272C0000E00A3510F00C94C0130E948F23E08156
:10273C000E943E230E949423E0810E943E230E942B
:10274C009723E0810E943E230E949A23E0810E94FD
:10275C003E230E949D23E0810E943E230E94A023E1
:10276C000E94A8230E94B0230E94B8230E94C02379
:10277C000F5FD7CF23E00DC0999908C0999903C07A
:10278C000E94DE21FBCF23E00C940E080E94CA238A
:10279C001ECF0E94EB21ACEBB3E00E94201F00E0A7
:1027AC00003110F00C94E7130A93A1E00E94C01EB4
:1027BC00AFEF0E94E11EAEE3B0E00E9478250F5F00
:1027CC00EFCFE091E306E03011F40C94F9130E9482
:1027DC000F22A7EBB2E00E947E20E03011F00C94A7
:1027EC00F9130C9457060C940E0820E000E00A35FF
:1027FC0010F00C941214FA01A22FB0E0EA17FB07A8
:10280C0011F00C940A1408C00E94EE2111F40C94DF
:10281C0010142F5F0F5FEBCF0093E006E091CF0217
:10282C00E093E1060E94D21EC398E091E006E030EE
:10283C0011F40C9422141EC00E9443230E94A42263
:10284C00EA0FFB1FFA93EA930E94A4220E946504EC
:10285C00E091D302F0E0309711F00C943814E1E0E1
:10286C00F0E005C0A091D302EAE0EA9FF001DF019D
:10287C000E947825E091E006E03011F40C944D14A0
:10288C00E091E206E03011F40C944D1406C00E9465
:10289C0020210E941E23E1E0E9BF0E944F282A96C6
:1028AC0008951A93E0E0E093E406E093E5060E94B5
:1028BC006821173010F00C947414E7E0E11BAE2F74
:1028CC000E944B03AE2F0E944E21E081EA1710F0BC
:1028DC000C9472140E94E9231F5FEBCF0E94C0215D
:1028EC001E3010F00C948A14A12FA6500E944B039A
:1028FC00AE2F0E944E21E081EA1710F00C94881440
:10290C000E94E9231F5FECCF23FE08C00E94F9232D
:10291C00E095F095E093E406F093E506199108959F
:10292C000E9457140E94F923E130A0E0FA0711F03D
:10293C000C94A3140E94FE23E0C2E330A0E0FA073B
:10294C0011F00C94AA1406C0E730A0E0FA0711F0BD
:10295C000C94B514ECE0F0E00E940524CEC2E230F9
:10296C00A0E0FA0711F00C94C014EBE0F0E00E9428
:10297C000524C3C2E630A0E0FA0711F00C94C7148A
:10298C0006C0EE30A0E0FA0711F00C94D214EAE085
:10299C00F0E00E940524B1C2E430A0E0FA0711F087
:1029AC000C94DD14E9E0F0E00E940524A6C2EC30A2
:1029BC00A0E0FA0711F00C94E41406C0EC31A0E08E
:1029CC00FA0711F00C94EF14E8E0F0E00E940524F3
:1029DC0094C2E830A0E0FA0711F00C94FA14E7E086
:1029EC00F0E00E94052489C2E831A0E0FA0711F05A
:1029FC000C94011506C0E833A0E0FA0711F00C9412
:102A0C000C15E6E0F0E00E94052477C2E031A0E06E
:102A1C00FA0711F00C941715E5E0F0E00E9405247C
:102A2C006CC2E033A0E0FA0711F00C941E1506C03E
:102A3C00E030A0E9FA0711F00C9427150E940A2443
:102A4C005CC2E032A0E0FA0711F00C9430150E9441
:102A5C000D2453C2E036A0E0FA0711F00C943715A0
:102A6C0006C0E03EA0E0FA0711F00C9440150E945D
:102A7C00102443C2E034A0E0FA0711F00C9449157D
:102A8C000E9413243AC2E03CA0E0FA0711F00C9427
:102A9C00501506C0E03EA1E0FA0711F00C94591550
:102AAC000E9416242AC2E038A0E0FA0711F00C9418
:102ABC0062150E941C2421C2E038A1E0FA0711F033
:102ACC000C94691506C0E03CA1E0FA0711F00C94D7
:102ADC0072150E941F2411C2E030A1E0FA0711F018
:102AEC000C947B150E94222408C2E030A3E0FA0764
:102AFC0011F00C94821506C0E038A3E0FA0711F02F
:102B0C000C948B150E942524F8C1E030A2E0FA0742
:102B1C0011F00C949615EBEFFFEF0E940524EDC11C
:102B2C00E030A6E0FA0711F00C949D1506C0E030D9
:102B3C00A7E0FA0711F00C94A815EAEFFFEF0E943A
:102B4C000524DBC1E030A4E0FA0711F00C94B315B6
:102B5C00E9EFFFEF0E940524D0C1E030ACE0FA07AA
:102B6C0011F00C94BA1506C0E030AEE0FA0711F083
:102B7C000C94C515E8EFFFEF0E940524BEC1E030B0
:102B8C00A8E0FA0711F00C94D015E7EFFFEF0E94C4
:102B9C000524B3C1E030A8E1FA0711F00C94D71565
:102BAC0006C0E030ACE1FA0711F00C94E215E6EF48
:102BBC00FFEF0E940524A1C1E030A0E1FA0711F05B
:102BCC000C94ED15E5EFFFEF0E94052496C1E03063
:102BDC00A0E3FA0711F00C94F41506C0E030A8E35A
:102BEC00FA0711F00C94FF15E4EFFFEF0E94052497
:102BFC0084C1E030A0E2FA0711F00C940A16E3EF5E
:102C0C00FFEF0E94052479C1309711F00C94311616
:102C1C00E091E206E03011F00C943016A091D6064B
:102C2C00B091D706139714F40C941F160E94FE2330
:102C3C0011C0A091D606B091D706AE3FEFEFBE07FC
:102C4C0014F00C942E16E3EFFFEF0E94052402C043
:102C5C000E94162452C1E333A0E0FA0711F00C9441
:102C6C00381606C0E331A0E0FA0711F00C943F16B9
:102C7C0006C0E930A0E0FA0711F00C944A16E5E022
:102C8C00F0E00E94052439C1E636A0E0FA0711F005
:102C9C000C94511606C0E632A0E0FA0711F00C9421
:102CAC00581606C0E233A0E0FA0711F00C94611636
:102CBC000E940A2422C1EC34A0E0FA0711F00C9413
:102CCC00681606C0EC36A0E0FA0711F00C946F16EB
:102CDC0006C0E436A0E0FA0711F00C9478160E94B6
:102CEC000D240BC1E839A0E0FA0711F00C947F1603
:102CFC0006C0E834A0E0FA0711F00C9488160E9484
:102D0C001024FBC0E033A1E0FA0711F00C948F16ED
:102D1C0006C0E03BA1E0FA0711F00C94961606C031
:102D2C00E039A1E0FA0711F00C949D1606C0E039C9
:102D3C00A0E0FA0711F00C94A6160E941324DDC033
:102D4C00E032A1E0FA0711F00C94AD1606C0E033A6
:102D5C00A3E0FA0711F00C94B6160E941624CDC00D
:102D6C00E032A3E0FA0711F00C94BD1606C0E03671
:102D7C00A3E0FA0711F00C94C41606C0E036A2E0EA
:102D8C00FA0711F00C94CB1606C0E034A2E0FA0757
:102D9C0011F00C94D4160E941C24AFC0E034A6E0B1
:102DAC00FA0711F00C94DB1606C0E038A4E0FA0721
:102DBC0011F00C94E4160E941F249FC0E038ACE084
:102DCC00FA0711F00C94EB1606C0E038ADE0FA07E8
:102DDC0011F00C94F21606C0E038A9E0FA0711F0D5
:102DEC000C94FB160E94222488C0E038A9E1FA0753
:102DFC0011F00C94021706C0E030A9E1FA0711F0AB
:102E0C000C94091706C0E030A3E1FA0711F00C94FA
:102E1C0012170E94252471C0E030A3E3FA0711F0C9
:102E2C000C94191706C0E030A2E3FA0711F00C94C9
:102E3C00201706C0E030A4E2FA0711F00C942B170F
:102E4C00EBEFFFEF0E94052458C0EF30A0E0FA072B
:102E5C0011F00C9434170E940A244FC0EF31A0E0FB
:102E6C00FA0711F00C943D170E940D2446C0EF3365
:102E7C00A0E0FA0711F00C9446170E9410243DC0F4
:102E8C00EF37A0E0FA0711F00C944F170E941324AF
:102E9C0034C0E030AFEFFA0711F00C94561706C0AF
:102EAC00EF3FA0E0FA0711F00C945F170E94162474
:102EBC0024C0E030AEEFFA0711F00C9468170E94B2
:102ECC001C241BC0E030ACEFFA0711F00C94711706
:102EDC000E941F2412C0E030A8EFFA0711F00C94E6
:102EEC007A170E94222409C0E030A0EFFA0711F0F3
:102EFC000C9483170E94252400C0E091E206E03078
:102F0C0011F40C94DA1821FE0EC00E942824AE0F86
:102F1C00BF1FE091B606F091B706AE17BF0710F4CD
:102F2C000C94991701C011C0E89421F8E091E106C6
:102F3C000E943C210E94312410F40C94AA17E9E55C
:102F4C00E093E006689422F803C021FE01C02CC176
:102F5C000E94F923E07EF170309711F40C94B917AC
:102F6C00E1E0F0E01EC00E943A24E081F0E03097EE
:102F7C0011F40C94C8170E944024309711F40C944F
:102F8C00C81701C003C0E1E0F0E00BC00E943A2476
:102F9C00A081B0E00E944024EA2BFB2B0E945F270B
:102FAC00F0E0E093E606F093E7060E943A24E08115
:102FBC00F0E0309711F40C94EB170E943A24E08166
:102FCC00A4ECB6E00E9448240AC0A091E406B0919B
:102FDC00E506E9E00E9444270E945F27F0E0E093B9
:102FEC00E806F093E9060E944024309711F40C9403
:102FFC000A18E091E006F0E0E65EFB4FE081A8EBFA
:10300C00B6E00E9448240AC0A091E406B091E506FF
:10301C00E9E00E943B270E945F27F0E0E093EA067C
:10302C00F093EB06E091E606F091E706309711F489
:10303C000C943118E091E806F091E906309711F400
:10304C000C943118E091EA06F091EB06309711F4EC
:10305C000C94311801C0A8C0AE98AF98E091E0066E
:10306C00F0E0E054FC4FE081F0E0309711F00C946C
:10307C0046180E945624A081B0E00E94650435C019
:10308C00E130A0E0FA0711F00C9456180E94562477
:10309C00E081F0E00E942F27DF010E94650425C02B
:1030AC00E230A0E0FA0711F00C947118E091E00600
:1030BC00F0E0E452FA4FE081F0E00E942F27FA93FF
:1030CC00EA93E091E006F0E0EA5CF94FA081B0E011
:1030DC000E9465040AC0E330A0E0FA0711F00C94DA
:1030EC007B180E94CF22689422F8C39AE091E006E4
:1030FC00F0E0E45FFC4FE081F0E0309711F40C94C9
:10310C009118E091E006F0E0E45FFC4FA081EAE06A
:10311C00EA9FF00102C0E1E0F0E0DF010E947825B7
:10312C00C398E091E006F0E0E85DFA4FE081E03012
:10313C0011F40C94A318E8E02E26E091E006F0E0E0
:10314C00EA59FC4FE081E03011F40C94B01821FCEA
:10315C0001C001C01FC0689421F8E091E006F0E0C6
:10316C00EE57FA4FE0810E943C210E942824EA0F7E
:10317C00FB1FBF01E091E006F0E0EA59FC4FA08193
:10318C00E4E6EA9FF001E60FF71FE093B606F09332
:10319C00B7060AC00E94312410F40C94DA18E9E541
:1031AC00E093E006689422F80E946524D5010E9401
:1031BC006C27E093D206F093D306A091D806B09179
:1031CC00D9060E946524EA1BFB0BE093DA06F09308
:1031DC00DB06A091C902B091CA020E946C27E09351
:1031EC00D406F093D5060E946524E093D806F0939C
:1031FC00D906E091D406F091D506A091D206B091F3
:10320C00D306EA0FFB1FE093D006F093D106A091F2
:10321C00D006B091D1060E94AE22EA1BFB0B0E9495
:10322C00B322E091D006F091D1060E94A422EA0FBD
:10323C00FB1F0E94B8220E94BD220895EFEFEBBB4A
:10324C00E0E0EABBEFE3E5BBE0ECE4BBE0E0E8BBCD
:10325C00EFEFE7BBE0E0E2BBE8E7E1BBE1EAEFBDA3
:10326C00E3E0EEBDE0E2E7B9E6E8E6B9E0E0EBB9B1
:10327C00E8EDEAB9E6E8E0BDE0E0E0BDE7E6E9B993
:10328C00E5E0E3BFE0EFE2BFE1E0E9BF7894E0E026
:10329C00E9BF0895A3E3B0E00E941F28E03011F4C9
:1032AC000C94E719A0E0B0E0E4E10E943328A1E01F
:1032BC00B0E0E0E00E943328A2E0B0E0EDE20E9432
:1032CC003328A3E0B0E0E8EC0E943328A4E0B0E09F
:1032DC000E943328A5E0B0E0E6E90E943328A2E37F
:1032EC00B0E0E0E00E943328A0E3B0E0E0E0F0E0E2
:1032FC000E942B2810E01A3510F00C94CA19A12F3B
:10330C00B0E0AC5CBF4FE9E10E946A24A257BF4F0A
:10331C00E0E00E946A24A851BF4FE1E00E946A24B9
:10332C00AE5BBE4FE3E00E946A24A456BE4FE3E0BE
:10333C000E946A24AA50BE4F103011F00C94A819A8
:10334C00E1E001C0E0E00E946A24A05BBD4FE0E038
:10335C000E946F24E655FD4F0F010E943721D001CA
:10336C000E946F24EC5FFC4F0F010E943721D001AB
:10337C000E946F24E25AFC4F0F010E943721D001AA
:10338C000E9433281F5FB7CF10E01E3010F00C9452
:10339C00E219A12FB0E0AC5EBF4FE8EC0E946A24AA
:1033AC00AE5DBF4FE4E60E946A24AA5FBF4FE6E918
:1033BC000E9433281F5FE9CFA3E3B0E0E0E00E9456
:1033CC0033280E94A6030E9424190E94CF22A0E158
:1033DC000E94321FC39A0E948105A091ED06A7306E
:1033EC0010F00C94FA19F7CF0E94C821ADECB3E0A1
:1033FC000E94CD21AEEDB3E00E94201F10E01A30E8
:10340C0010F00C94151AAE9AAF98C3980E94E22152
:10341C00AE98AF9AC39A0E94E2211F5FF0CF10E0E2
:10342C00173010F00C94271AE12FF0E00E944D2772
:10343C00EC5AFF4FFA93EA93A12F0E945A031F5F95
:10344C00EFCF0E945006989B03C022FC01C054C0D1
:10345C00E091E206E03011F40C94371A22FC01C022
:10346C0002C0E0E0E9BF0E94CF22AE98AF980E9464
:10347C001624E0E0E093D806E093D906E89422F80D
:10348C0021F8C39AE091E006F0E0E054FC4FA081F3
:10349C00A33011F40C945F1AA091E006A93511F435
:1034AC000C945F1AE091E206E03011F40C945F1A70
:1034BC001DC00E94C821A3EFB2E00E94CD210E9442
:1034CC001A220E9405230E941E230E9420219899F3
:1034DC0003C00E94DE21FBCF989906C0989903C0C7
:1034EC000E94DE21FBCF01C0F7CF05C0989903C025
:1034FC000E94DE21FBCFA5CF0E949614A4CFFFCF54
:10350C00BA93AA931A930A93AA81BB8112960E942A
:10351C00EB27309711F40C94BF1AAA81BB81149637
:10352C000E94EB278F01309711F00C949E1A0EC05D
:10353C000230E0E01E0710F40C94B41AF801319735
:10354C008F01AA81BB811496ED93FC93AA81BB8158
:10355C0012960E9415213197AC81A083AA81BB8160
:10356C000E94EB27FF2312F40C94BE1A0E94152123
:10357C0006C0AA81BB81EFEFFFEFED93FC9319819D
:10358C00088125960895BA93AA930E94E621E0E853
:10359C00EA83EFE3EB830E944A28EE85FF85EF3F39
:1035AC00AFEFFA0711F00C94E71AE885F985FA9356
:1035BC00EA93A0EFB3E00E9492200E9451286096FB
:1035CC000895EF3FAFE7FA0711F00C94F91AE8856C
:1035DC00F985FA93EA93A1EFB3E00E9492200E943E
:1035EC00512860960895AB85A73010F40C94001BFD
:1035FC00E6E0EB871B85E12F1150E03011F40C94C1
:10360C000A1B0E947424F7CFEC85FD856E857F859F
:10361C000E94442811F00C94171B30E00E94742473
:10362C0034C03B850E94832409F010F40C942B1BAE
:10363C000E9474240E94832410F40C942A1B0E9470
:10364C008E240E949324F6CF0FC00E94832410F086
:10365C000C94381B0E948E240E949F240E94A62446
:10366C003150F3CF0E947424EC85FD856E857F85E7
:10367C000E94AB240E94A6240E94832410F40C9474
:10368C004B1B0E948E240E94932410E0EB85E117C3
:10369C0010F40C94891BAC81BD818E819F810E949A
:1036AC00B2240E94AB24DF01CB010E94FD20EC83ED
:1036BC00FD836E837F830E948E240E94C6260E9407
:1036CC00B5250E2F0E94B9240E94C024FF2766271F
:1036DC0077270E94EE25AC81BD818E819F810E944F
:1036EC0078260E948E240E94C5240E94A624E12FD5
:1036FC001F5FE03011F40C94841BC8CF0E94B924D6
:10370C00EEE2EC93C3CF0E94CA243197AA85A08322
:10371C00303014F00C94981B3195A885B985EDE2E6
:10372C00EC9304C0A885B985EBE2EC930E94CA2403
:10373C000E94CA243197BF01A32FEAE00E947F2781
:10374C00E05DDB01EC930E94CA243197BF01A32FEB
:10375C00EAE00E94C127E05DDB01EC93A885B98506
:10376C00E0E0EC930E94512860960895BA93AA93D6
:10377C00EF9761970E94482810E0FE01E85AFF4F2E
:10378C000190F081E02DE887F987FE01EA5AFF4F9E
:10379C000190F081E02DEE83FF83AE81BF81E0E0EC
:1037AC00F0E0ED93FC93DE01A45ABF4F0E9415216B
:1037BC003197E4912E2FE03011F40C944E1EE12F32
:1037CC00E03011F00C94F31B253211F00C94F01B2B
:1037DC0011E002C00E94D0245AC2E13011F00C94C6
:1037EC00181C253211F00C94FF1B0E94D02410E001
:1037FC004EC212E0E0E0ED8B00E02D3211F00C94A3
:10380C00091C01E044C22B3211F00C94101CEBE2A9
:10381C00ED8B3DC2203211F00C94171CE0E2ED8BC5
:10382C0036C204C0E23011F00C94251C50E013E0B9
:10383C00203311F00C94241C006829C204C0E3301E
:10384C0011F00C94431C203310F40C94321C2A33CA
:10385C0010F00C94321C01C007C0AAE05A9F502DE6
:10386C00E22FE0535E0F13C240E02E3211F00C94A5
:10387C00411C14E00CC217C004C0E43011F00C94CD
:10388C00611C203310F40C94501C2A3310F00C944F
:10389C00501C01C008C00062AAE04A9F402DE22FD4
:1038AC00E0534E0FF4C12C3611F00C94601C0260E6
:1038BC0015E0EDC104C0E53011F00C944D1EE22F63
:1038CC00E33611F00C94761C0E94D7240E94DE245F
:1038DC000E94D724A481AA930E94E524D7C104C0D6
:1038EC00E53411F00C947B1C04C0E53611F00C94FB
:1038FC00801C04C0E63611F00C94D81CFE017696A0
:10390C00EE87FF870E94EB240E94F2240E94F92488
:10391C00AD85AA2312F40C94A01CAD89AB3211F026
:10392C000C94991C0FC0AD89A03211F00C949F1C03
:10393C0010C017C00E941F220E9482250E94FC24E6
:10394C00EDE2ED8B07FF05C0ED89EA930E94E524BB
:10395C0008C0EE85FF853196EE87FF873197AD89DC
:10396C00A08305FD01C046E0263611F00C94C81C5E
:10397C000E941F220E9404284A93AB89BC890E9492
:10398C009C1F0AC00E941F220E9404284A932A935B
:10399C00AC89BD890E94C91AFE0176960E94012548
:1039AC0029C004C0E33711F00C94E41C0E94F924E4
:1039BC000E9409250E94012511C004C0E03711F0B6
:1039CC000C94061D0E94F9240E940925EE87FF879E
:1039DC00AE85BF850E94AB201E2F08600F7740304C
:1039EC0011F40C94FE1C411710F00C94FE1C01C039
:1039FC0001C0142F40E0E0E0EC8B30E07FC004C04D
:103A0C00E43611F00C940B1D04C0E93611F00C9443
:103A1C00111D046004C0E53711F00C942A1DEAE076
:103A2C00EC8B01FF08C0E0E0FAEC6AE97BE30E9452
:103A3C000F251AE026C0E0E1F7E260E070E00E949A
:103A4C000F2515E01EC004C0E83511F00C94301D94
:103A5C00086004C0E83711F00C944C1EE0E1EC8BCC
:103A6C0001FF08C0E0E0F0E060E070E10E940F258B
:103A7C0018E007C0E0E0F0E160E070E00E940F2584
:103A8C0014E0403011F40C944D1D0F7701C041E04F
:103A9C0001FF08C00E94F9240E94EB2414960E9496
:103AAC00F22413C002FF09C00E94F9240E940925C8
:103ABC000E945A270E94FC2408C00E94F9240E94EC
:103ACC000925662777270E94FC2402FF16C0AD85C6
:103ADC00AA2312F00C947A1D0E941F220E943327F5
:103AEC000E94FC24EDE2ED8BED89E03011F40C9496
:103AFC00821D1F5F4F5F01C00B7F342F00FD19C06B
:103B0C00151710F00C948F1D351710F00C948F1D99
:103B1C0001C00FC007FF08C002FF04C00B7F2D8936
:103B2C00115001C020E301C020E20E94D02451506A
:103B3C00E7CF141710F00C94B91D006102FF08C0F8
:103B4C000E94142511F40C94AC1D5150115041508D
:103B5C00E0E3EA930E94E524503011F40C94B71D75
:103B6C0051504150E6CF312FEC89E03011F00C94DC
:103B7C00DA1D303011F40C94D91D03FF06C0EE850C
:103B8C00FF852591EE87FF8705C0AE85BF852D91FA
:103B9C00AE87BF870E94D024503011F40C94D71DEF
:103BAC0051503150E6CF66C00E9426250E949C27BA
:103BBC002E2F2A3010F40C94E91D03FF02C0295C4F
:103BCC0001C0295A01C0205D04FF01C02FC0213360
:103BDC0010F00C94001EA889B9898A899B89A130A0
:103BEC00E0E0BE07E0E08E07E0E09E0711F40C94E5
:103BFC00001E01C012C0431710F40C94071E20E3E2
:103C0C000CC0531710F40C940E1E00FD01C001C023
:103C1C0014C020E207FF0AC020E3006102FF06C0C7
:103C2C000E94142511F40C941C1E51500E94D02497
:103C3C00503011F40C94231E515031500E94262503
:103C4C000E94CD270E94FC24EC89A889B9898A8915
:103C5C009B89FF27662777270E949C270E940F25A8
:103C6C00E889F9896A897B890E94442811F40C94AB
:103C7C00401E9ACF00FF0AC0503011F40C944C1E19
:103C8C005150E0E2EA930E94E524F6CF10E08BCD90
:103C9C00AE81BF810E94EB270E944F28EF966F9652
:103CAC000895FF92F82E26970E944A280E942F25ED
:103CBC00309711F00C94691EEFEFFFEF0E94512822
:103CCC002A96FF900895DE0116960E942B278D01EF
:103CDC000E942F25EE83FF83E0E0E887E987DE0171
:103CEC001A960E942B270E94EB27FA93EA931A93B9
:103CFC000A93E6E8FAE1FA93EA93DE011A960E9437
:103D0C00BC1B9F010E943625F9010E9451282A965E
:103D1C00FF900895AA93E8B3EF70AE2FE881E07F8F
:103D2C00EA2BE8BB8BE18A95F1F7C29A8BE18A9575
:103D3C00F1F7C2988BE18A95F1F721960895AA9331
:103D4C00A8810E94901EE881E295E883A8810E94D8
:103D5C00901E88EC90E00197F1F721960895AA93B4
:103D6C00A9810E94A51EC09AA8810E94A51EC09878
:103D7C0022960895AA93E881F0E0E251F94FE08190
:103D8C00A981AE0F0E94A51EE981E093F206E8819D
:103D9C00E093F30622960895A2E00E943B25ACE046
:103DAC000E94A51EA1E00E943B25E0E0E093F306F3
:103DBC00E093F2060895AA93A881AA3011F40C940A
:103DCC00F01EE091F406A091F206AE1710F00C94E0
:103DDC00F01E10C0E0E0EA93A091F306AF5FA09351
:103DEC00F3060E94C01EA881AA3011F00C94001F8B
:103DFC0021960895E091F206EF5FE093F206C09AE7
:103E0C00A8810E94A51EC09821960895BA93AA93E2
:103E1C001A93A981BA81ED91A983BA831E2FE03040
:103E2C0011F40C941D1FA12F0E94E11EF2CF1881DA
:103E3C0023960895BA93AA931A930E942621E4918B
:103E4C001E2FE03011F40C942F1FA12F0E94E11EA5
:103E5C00F4CF188123960895AA93E7B3E06FE7BBDC
:103E6C00BA9AB89AB99AC298C098C198E881E09366
:103E7C00F406E058E093F006E881E054E093F10694
:103E8C000E94DE210E9441250E9441250E9441256D
:103E9C00A0E20E94901E80E991E00197F1F7A8E260
:103EAC000E94A51EA4E00E94A51EA5E80E94A51EC6
:103EBC00A6E00E94A51E0E94D21E21960895BA93D8
:103ECC00AA93B981A881EC918A2FAE2F0E94C120B0
:103EDC00A82FEE2311F01196F6CFE894EC91ED3269
:103EEC0011F4689402C0EB3209F411966627772717
:103EFC00EC918A2FAE2F0E94B820A82FEE2379F0D8
:103F0C00FB01660F771F660F771F6E0F7F1F660F03
:103F1C00771FED91FF27E0536E0F7F1FE9CFFB0159
:103F2C001EF4E095F095319622960895BA93AA93D3
:103F3C000E94E621E0E0EA83EFE3EB831A930A9315
:103F4C00EB85FC85EF3FAFEFFA0711F00C94B51F32
:103F5C000E944925AAEFB3E00E944E250895EF3F39
:103F6C00AFE7FA0711F00C94C21F0E944925ABEF82
:103F7C00B3E00E944E250895AC85AA2312F00C9450
:103F8C00D31FE985FA856B857C850E9482250E946A
:103F9C0054250E945925EDE2EC93A885A73010F426
:103FAC000C94DA1FE6E0E8871885E12F1150E03019
:103FBC0011F40C94E81F0E9460250E94B2240E9408
:103FCC006525F3CF0E946A250E9428260E9454255D
:103FDC0010E0E0E0F0E060E87FE30E9465250E94DD
:103FEC006A250E940B2710F40C940F200E94602568
:103FFC000E949F240E9465251F5F173210F40C94B9
:10400C000E200E944925AFEFB3E00E944E25089583
:10401C00E6CF103011F00C9418200E945925E0E3E3
:10402C00EC932DC0E12F1150E03011F40C9445208D
:10403C000E9460250E94B2240E94AB24DF01CB01B8
:10404C000E94FD200E9465250E946A250E94C626BA
:10405C000E94B5250E2F0E9459250E94C024F0E025
:10406C000E9460250E945A270E94EE250E94782605
:10407C000E9473250E94C5240E945425D3CFE88545
:10408C00E03011F00C9450200E94362519810881E3
:10409C002D9608950E945925EEE2EC93E885E150A7
:1040AC00E887EF5F11F40C9478200E9473250E942E
:1040BC009F240E945425E985FA856B857C850E9496
:1040CC00B5250E2F0E9459250E94C024F0E00E94B5
:1040DC0073250E945A270E94EE250E94C5240E9437
:1040EC005425DCCF0E943625198108812D96089520
:1040FC00BA93AA93E991F991A991B9916D917191A2
:10410C00671721F46623D1F7EE270895671BE1F3B7
:10411C00E1E008F4E2500895BA93AA93E991F99179
:10412C00A991B991CD0105900D920020E1F7FC0108
:10413C000895BA93AA93A991B991EE27FF276D918F
:10414C00662311F03196FBCF0895BA93AA93AA2750
:10415C00BB27E991F9910590002011F01196FBCF46
:10416C00FD010895AA93E1E0F991F03310F0FA33D0
:10417C0008F0EE270895AA93E1E0F991F03229F0C6
:10418C00F93010F0FE3008F0EE2708950E9409284F
:10419C007B816A81F981E88177FB770F67FD71601C
:1041AC00972F9E5781F078F0983190F4AA27BB276F
:1041BC00882708948795B795A7959A95D1F7EA2300
:1041CC00FB23682305C0E8947727EE27FF27662793
:1041DC006F77769508F4606877F9A991B991899110
:1041EC009991EA17FB076807790797FB08950E94D6
:1041FC0009280E94FA270E94CC200E94FF2721F454
:10420C000E94F52724960895DEF70E94F527A0E07A
:10421C00B0E080E89FE30E94212624960895ED915A
:10422C00FD913196FE93EE930895A091B206B09154
:10423C00B3060895E0E0E093B206E093B306089568
:10424C00E981FA813196E983FA8331970895E093F5
:10425C00CB02F093CC020895E093CD02F093CE0202
:10426C000895A5E0B0E00E941F280895F0E0E093C7
:10427C00CF02F093D0020895E093D102F093D202D2
:10428C0008950E941F28D001EC93E12FF0E00895CF
:10429C00E12FF0E0E250FD4F0895E091CB02F09158
:1042AC00CC020895E091CD02F091CE020E942F270E
:1042BC000895A091CD02B091CE02EFEFF0E0EA1B91
:1042CC00FB0B0895AE9AAF9888E592E00197F1F751
:1042DC0010E00895E12FF0E0EC52FD4F0895EC93BF
:1042EC00EEE0E11BEA93A0E00E94C01E00E00895FE
:1042FC008081E12FF0E0EE51FD4F60817727E12FB7
:10430C00F0E0EE51FD4FA081B0E0C2CFE081F0E0D3
:10431C00AE1BBF0BE8E0F0E00E949727DF01E02F17
:10432C00F0E0089531960E946C27DF01FB01EA1B37
:10433C00FB0BA82FB0E0AE17BF0708950E946C27A7
:10434C00DF01FB01EA1BFB0BA82FB0E0AE17BF0788
:10435C000895A081E12FF0E0EE51FD4FE081EA17C6
:10436C000895E02FF0E0A7E0B0E00E941428EA1BCB
:10437C00FB0B0895AE98AF9A88E592E00197F1F7A0
:10438C0017E00895E0E0EA93A0E00C94C01E0E94B0
:10439C00201FE0E0EA93A1E00C94C01EEA93A1E098
:1043AC000C94C01EE091ED06EF5FE093ED060895CE
:1043BC00A4E1B0E00C947825A4E6B0E00C94782548
:1043CC002497E0E0E883E98308950E94D21EDACFB7
:1043DC00E02FF0E0E253FB4FE081E0300895E0E99C
:1043EC00F6E0FA93EA93E6EFF0E0FA93EA93FA0137
:1043FC0031960E945A270E94042884E00E94571E7E
:10440C002896A0E9B6E00C940C1FA0EAB6E00C9438
:10441C008D03E0EAF6E0FA93EA9308950E94201FD8
:10442C00ACEDB5E00C947825E0E9F6E0FA93EA936C
:10443C000895EA85FB856C857D8508950E94042886
:10444C0084E00E94571E28960895A0E9B6E00C94CB
:10445C000C1FFA93EA9380E00E94571E2496F5CF26
:10446C000E947903D6CFE6E6F2E0FA93EA93089538
:10447C00F5010E945A27E2CFA0EAB6E00C9479032A
:10448C00F6010E945A27DACFE091C902F091CA02D4
:10449C000E945A27D3CFEA2DA0E0B0E00E94332827
:1044AC00EC2DA1E0B0E00E943328E091C902A2E01B
:1044BC00B0E00E9433280895A0EAB6E00C94651F82
:1044CC00A6E4B0E00C947825ED91FD913197FE9324
:1044DC00EE930895E9EFF0E0FA93EA930895AE2F86
:1044EC000E94E11EE5E05ACFAAE0B0E00C947825DA
:1044FC000E9453210E945A27A1CFE091CD02F09146
:10450C00CE020E945A279ACFE091CF02F091D002AE
:10451C000E945A2793CFE091CB02A3E0B0E00E9417
:10452C003328E091CD02A4E0B0E00E943328E09162
:10453C00CF02A5E0B0E00E9433280895A091CF02ED
:10454C00B091D0020895AE2F0E94E11EEBE00895C9
:10455C00E091CF02F091D0020895E093DE06F09343
:10456C00DF060895E093DC06F093DD060895E091F4
:10457C00D102F091D202A091DC06B091DD06EA0FD7
:10458C00FB1FFA93EA93A091DE06B091DF060C9420
:10459C006504E0E0F0E0FA93EA93A0E0B0E00C945C
:1045AC0065040E94201FE091D102F091D2020E947A
:1045BC00A422EA0FFB1FFA93EA9308950E94A42207
:1045CC000E946504ACEDB5E00E947825E0E0E6CEF3
:1045DC000E94AE220E942F270895DF010E946504DD
:1045EC00ACEDB5E00E947825E0E0D8CEA091D102E8
:1045FC00B091D202EA0FFB1FFA93EA930895E4E01C
:10460C00F3E0FA93EA93E091B406F091B5066627CD
:10461C0077270E940428E091B206F091B306662732
:10462C0077270E94042888E00E94571E2C960DCFF5
:10463C00E0E0E093B406E093B5060895E02FF0E0D7
:10464C00EC52FD4F0895A02FB0E0AE51BD4FF6CF08
:10465C00A02FB0E0A051BD4FF1CFE02FF0E0EE5114
:10466C00FD4F0895E02FF0E0E051FD4FE0810895FB
:10467C000E943328A02FB0E00895E091D102F09170
:10468C00D20208950E945A27D9CEFF276627772792
:10469C00D5CEEC91EF5FEC93E02FF0E00895E02F96
:1046AC00F0E0E45FFC4F0895E02FF0E0EA59FC4F96
:1046BC000895E02FF0E0E054FC4F0895E02FF0E077
:1046CC00EC58FB4F0895E02FF0E0E65EFB4F0895A9
:1046DC00E1E0EA93A0E00E94C01EA6CEEBE5F3E079
:1046EC00FA93EA93E02FF0E03196CCCFE6E0EA9330
:1046FC00A0E00C94C01EEA93A0E00C94C01EAE2F58
:10470C000E94E11EE5E0F7CFAE2F0E94E11EE0E033
:10471C0045CEA02FB0E0AC5CBF4FC1CFA851BF4F6E
:10472C00C8CFA456BE4FCACFAE5BBE4FCCCFA2579C
:10473C00BF4FBACFAA50BE4FE02FF0E0E253FB4F71
:10474C00E08196CFA05BBD4FE02FF0E0E85DFA4F23
:10475C00E0818ECFAC5FBC4FE02FF0E0E452FA4F1B
:10476C00E08186CFA25ABC4FE02FF0E0EA5CF94F13
:10477C00E0817ECFA655BD4FE02FF0E0EE57FA4F0B
:10478C00E0810E9433280895A0E5B0E00C947825D0
:10479C00E02FF0E0E85DFA4F0895E02FF0E0E452EE
:1047AC00FA4F0895E02FF0E0EA5CF94F0895A081EC
:1047BC000E945321B0E0EA17FB070895E02FF0E0C8
:1047CC00EE57FA4F0895E12FA1E0B0E00E943B278D
:1047DC00A091E406B091E506EA2BFB2BE093E406EE
:1047EC00F093E5060895E091E406F091E50608954E
:1047FC00EDE0F0E0E093D606F093D7060895E09351
:10480C00D606F093D7060895E4E0F0E0F8CFE3E0A5
:10481C00F0E0F5CFE2E0F0E0F2CFE1E0F0E0EFCF56
:10482C00E0E0E093D606E093D7060895EFEFFFEFB4
:10483C00E6CFEEEFFFEFE3CFEDEFFFEFE0CFECEFE6
:10484C00FFEFDDCFE091B406F091B506A8EEB3E032
:10485C000E946427EACCE091E006EF5FE093E0066B
:10486C00A091E006AA350895E091E006F0E0EC583E
:10487C00FB4F0895E091E006F0E0E65EFB4FE0812F
:10488C00F0E00895F0E0EE0FFF1FAE0FBF1F0E9487
:10489C00EB27A091E406B091E506EA23FB230895EB
:1048AC00E091E006F0E0E452FA4FE081F0E0FA9398
:1048BC00EA93E091E006F0E0EA5CF94F0895E091AC
:1048CC00D606F091D70608950E943328A12FB0E0A8
:1048DC0008950E943328E12FF0E00895AC81BD814A
:1048EC008E819F81E0E0F0E060E271E40E94782626
:1048FC00EC83FD836E837F830895EC81FD816E8153
:10490C007F81AC85BD858E859F850E940B27089580
:10491C00AC85BD858E859F850895EDECFCEC6CEC2B
:10492C007DE30E947826EC87FD876E877F873F5F4B
:10493C000895E0E0F0E060E271E40E9478260895CA
:10494C00EC87FD876E877F870895A0E0B0E080E05C
:10495C009FE30E9428260895EDECFCEC6CEC7DE3C3
:10496C000E9478260895A885B9851196A887B987DD
:10497C0011970895E02FE05DEC93E02F08950E94CD
:10498C000E280E9421260895E885F9853196E8873E
:10499C00F98708952A93AF81B885E985FA85099539
:1049AC000895FE01E65AFF4F0190F081E02D089525
:1049BC003497DE01A65ABF4FED93FC930895AF8157
:1049CC00B885E985FA8509950895DE01A65ABF4F89
:1049DC000D90BC91A02D08950E94EF27EA87FB87CC
:1049EC006C877D8708950E94D724E2CFEA87FB87E6
:1049FC006C877D870895EE87FF87AE85BF850E9403
:104A0C009F201E2F08950E94EB2414960E94EB27E2
:104A1C000895E88BF98B6A8B7B8B08950B7FED895E
:104A2C00EA93DE01A95ABF4F0D90BC91A02DFE0157
:104A3C00E75AFF4F0190F081E02D09955030089511
:104A4C00E889F9896A897B89AA85BB858C859D85CE
:104A5C000895DE011C960E942B270E94EB270895D7
:104A6C00AE81BF81E0E0EC9308950E94A51EA3E007
:104A7C00B0E00C947825A0E30E94901E80E991E0B0
:104A8C000197F1F70895EE81FF81FA93EA93089567
:104A9C000E949220198108812D960895E987FA8742
:104AAC006B877C870895AE81BF811196AE83BF83DF
:104ABC0011970895AA81BB818C819D810895EA8309
:104ACC00FB836C837D830895EA81FB816C817D81FE
:104ADC00A985BA858B859C850895A985BA858B8512
:104AEC009C850895109639F080EA9FE00197F1F7C4
:104AFC00A8951197C9F7089530976040704009F058
:104B0C0070580895552342F4503811F4E0FF04C056
:104B1C003196691F791F6BF050E8572711F45F939A
:104B2C00CFC05F3F31F0660F000C57956795752F1E
:104B3C0008955F9300200AF0CFC0C8C050E8192E2A
:104B4C001522880F991F9527550F879550E8072E2A
:104B5C000522660F771F7527550F67950895689482
:104B6C0001C0E8945F93F2DF703818F07F3F08F4CF
:104B7C00A7C056E1571BAAF4519558300EF4593082
:104B8C0030F0EFEFFFEF6FEF7FE777F91AC0772781
:104B9C005523B9F0EE0FFF1F661F771F5A95D1F7FB
:104BAC0010C07727583028F0EF2FF62F672F58506A
:104BBC00F9CF552331F076956795F795E7955A958A
:104BCC00D1F700200AF449D15F910895689401C08F
:104BDC00E894309760407040B1F0002426F07723C1
:104BEC0012F400943AD1172E7EE1112032F07A950E
:104BFC00EE0FFF1F661F111CF9CFEF2FF62F612D43
:104C0C005F938ADF5F9108954F93AF01FD01DA0145
:104C1C00AB01BC01CA01402D012C142E4F910895FB
:104C2C00EA0FFB1F681F0895E095F0956095EF5F04
:104C3C00FF4F6F4F08955F9381DF903871F150E80B
:104C4C00152604C05F937ADF903839F1703821F162
:104C5C00572F591B2BF112F4D7DFFACF583118F01C
:104C6C00AA27BB278827583028F0AB2FB82F8827C6
:104C7C005850F9CF552329F08695B795A7955A9595
:104C8C00D9F7502D512572F0CBDF38F46795F79595
:104C9C00E795739513F420C0B7DF3EDF5F9108955D
:104CAC00D8F7FBCFEA1BFB0B680B51F010F4009408
:104CBC00BBDF662392F3EE0FFF1F661F7A95CBF7CF
:104CCC00EE27FF27662777275F910895EFEFFFEF19
:104CDC006FE77FEF5F910895EFEFFFEF6FE77FE7EF
:104CEC005F9108955F932ADF703851F3903841F348
:104CFC0001240894791F23F41CF300203AF3ECCF21
:104D0C000F921F932F933F934F931127222799278D
:104D1C00689FA0018F9F302D410D591F6B9F300D47
:104D2C00411D591F8E9F27D0BF9F25D06A9F23D02E
:104D3C00BE9F1DD0AF9F1BD0AE9F110D291F391FD9
:104D4C00491F591FE32FF42F652F522F4F913F917D
:104D5C002F911F910F9066232AF0550FEE1FFF1F06
:104D6C00661F02C073954BF2CDDE5F910895100D56
:104D7C00211D391F02C0200D311D491F591F0895D7
:104D8C005F93DCDE703821F411200AF49FCFA4CF9E
:104D9C00903809F495CF01240894970B1BF4D4F3A5
:104DAC000020F3CF792F1F932F933F934F93112410
:104DBC001127222733274427552790E2AE17BF0728
:104DCC008607410730F0AE1BBF0B860B410B0894D6
:104DDC0001C08894551F221F331F111CAA1FBB1F13
:104DEC00881F441F9A9551F7F901612D4F913F91FE
:104DFC002F911F91662332F0550FEE1FFF1F661F78
:104E0C007A9543F27FDE5F91089599239AF0772388
:104E1C0042F0971748F029F4AE17BF07860720F029
:104E2C0031F098948894089598940894089518945F
:104E3C00889408957723C2F7971798F3A9F7EA1780
:104E4C00FB07680788F399F3ECCF0024AF0DB01D76
:104E5C000895F195E195F0400895F0956095709561
:104E6C00E195FF4F6F4F7F4F0895EE230E2EFD01FE
:104E7C0021F0EE0FFF1F0A94E1F70895EE230E2E9A
:104E8C00FD0121F0F595E7950A94E1F70895EE0FF1
:104E9C00FF1FEE0FFF1FEE0FFF1F0895FE2FFF0FDA
:104EAC00FF0B6F2F7F2F08956F2F660F660B762FDA
:104EBC000895EF2BE1E009F0E0E00895FA9FF02D62
:104ECC00EB9FF00DEA9FE02DF10D089570D0F6DF09
:104EDC000EF4BFDF0895002498E0AA0F001C0E1AF0
:104EEC0010F40E0E01C0A1609A95B9F7EA2FA02D0F
:104EFC00089551D0F0DF0EF4E195089500241124AB
:104F0C0090E1AA0FBB1F001C111C0E1A1F0A18F4EB
:104F1C000E0E1F1E01C0A1609A9599F7FD01D001DC
:104F2C00089545D0EBDF0EF494DF08953F934F9333
:104F3C005F93002411244427552730E2AA0FBB1F8E
:104F4C00881F991F001C111C441F551F0E1A1F0A85
:104F5C00460B570B28F40E0E1F1E461F571F01C081
:104F6C00A1603A9559F7FD01BC01D001CA015F91CE
:104F7C004F913F910895E894A7FF02C0A1956894C2
:104F8C00E7FDE195A8DFEA2F0EF4E1950895CEDF59
:104F9C00FD01BC010895E894E7FF02C0E195689417
:104FAC00A7FF04C0A19500F8039400FA0895E894B3
:104FBC00F7FF02C04EDF6894B7FF06C0A095B0950E
:104FCC00119600F8039400FA0895ED91FC91119755
:104FDC000895ED91FD916D917C9113970895E88161
:104FEC00F9816A817B810895A881B9818A819B812D
:104FFC000895E883F9836A837B8308957A936A938F
:10500C00FA93EA9308959A938A93BA93AA9308957C
:10501C00182E862F612D192E972F712D1B2EBF2F19
:10502C00F12D1A2EAE2FE12D0895119602D0FE2FE0
:10503C001197E199FECFFF93FFB7F894AEBBBFBBBE
:10504C00E09AEDB3FFBFFF91089507D01196EF934F
:10505C00EF2F03D0EF9111970895E19B02C0A89513
:10506C00FCCF9FB7F894AEBBBFBBE09A8DB3E817EB
:10507C0019F0EDBBE29AE19A9FBF0895309760401A
:10508C00704008955A934A933A932A931A930A9329
:10509C0008955D814C813B812A8119810881089595
:00000001FF
